{
  "_format": "hh-sol-artifact-1",
  "contractName": "Voting",
  "sourceName": "contracts/Voting.sol",
  "abi": [
    {
      "inputs": [],
      "stateMutability": "nonpayable",
      "type": "constructor"
    },
    {
      "inputs": [
        {
          "internalType": "address",
          "name": "owner",
          "type": "address"
        }
      ],
      "name": "OwnableInvalidOwner",
      "type": "error"
    },
    {
      "inputs": [
        {
          "internalType": "address",
          "name": "account",
          "type": "address"
        }
      ],
      "name": "OwnableUnauthorizedAccount",
      "type": "error"
    },
    {
      "anonymous": false,
      "inputs": [
        {
          "indexed": true,
          "internalType": "address",
          "name": "previousOwner",
          "type": "address"
        },
        {
          "indexed": true,
          "internalType": "address",
          "name": "newOwner",
          "type": "address"
        }
      ],
      "name": "OwnershipTransferred",
      "type": "event"
    },
    {
      "anonymous": false,
      "inputs": [
        {
          "indexed": false,
          "internalType": "uint256",
          "name": "proposalId",
          "type": "uint256"
        }
      ],
      "name": "ProposalRegistered",
      "type": "event"
    },
    {
      "anonymous": false,
      "inputs": [
        {
          "indexed": false,
          "internalType": "uint256[]",
          "name": "proposalIds",
          "type": "uint256[]"
        }
      ],
      "name": "ProposalTie",
      "type": "event"
    },
    {
      "anonymous": false,
      "inputs": [
        {
          "indexed": false,
          "internalType": "address",
          "name": "voter",
          "type": "address"
        },
        {
          "indexed": false,
          "internalType": "uint256",
          "name": "proposalId",
          "type": "uint256"
        }
      ],
      "name": "Voted",
      "type": "event"
    },
    {
      "anonymous": false,
      "inputs": [
        {
          "indexed": false,
          "internalType": "address",
          "name": "voterAddress",
          "type": "address"
        }
      ],
      "name": "VoterRegistered",
      "type": "event"
    },
    {
      "anonymous": false,
      "inputs": [
        {
          "indexed": false,
          "internalType": "address",
          "name": "voterAddress",
          "type": "address"
        }
      ],
      "name": "VoterUnregistered",
      "type": "event"
    },
    {
      "anonymous": false,
      "inputs": [
        {
          "indexed": false,
          "internalType": "enum Voting.WorkflowStatus",
          "name": "previousStatus",
          "type": "uint8"
        },
        {
          "indexed": false,
          "internalType": "enum Voting.WorkflowStatus",
          "name": "newStatus",
          "type": "uint8"
        }
      ],
      "name": "WorkflowStatusChange",
      "type": "event"
    },
    {
      "inputs": [],
      "name": "endProposalsRegistration",
      "outputs": [],
      "stateMutability": "nonpayable",
      "type": "function"
    },
    {
      "inputs": [],
      "name": "endVotingSession",
      "outputs": [],
      "stateMutability": "nonpayable",
      "type": "function"
    },
    {
      "inputs": [
        {
          "internalType": "uint256",
          "name": "_proposalId",
          "type": "uint256"
        }
      ],
      "name": "getProposal",
      "outputs": [
        {
          "internalType": "string",
          "name": "description",
          "type": "string"
        },
        {
          "internalType": "uint256",
          "name": "voteCount",
          "type": "uint256"
        }
      ],
      "stateMutability": "view",
      "type": "function"
    },
    {
      "inputs": [],
      "name": "getProposalsCount",
      "outputs": [
        {
          "internalType": "uint256",
          "name": "",
          "type": "uint256"
        }
      ],
      "stateMutability": "view",
      "type": "function"
    },
    {
      "inputs": [
        {
          "internalType": "address",
          "name": "_voter",
          "type": "address"
        }
      ],
      "name": "getVoter",
      "outputs": [
        {
          "internalType": "bool",
          "name": "isRegistered",
          "type": "bool"
        },
        {
          "internalType": "bool",
          "name": "hasVoted",
          "type": "bool"
        },
        {
          "internalType": "uint256",
          "name": "votedProposalId",
          "type": "uint256"
        }
      ],
      "stateMutability": "view",
      "type": "function"
    },
    {
      "inputs": [],
      "name": "getWinner",
      "outputs": [
        {
          "internalType": "uint256",
          "name": "winningProposal_",
          "type": "uint256"
        },
        {
          "internalType": "string",
          "name": "description",
          "type": "string"
        },
        {
          "internalType": "uint256",
          "name": "voteCount",
          "type": "uint256"
        }
      ],
      "stateMutability": "view",
      "type": "function"
    },
    {
      "inputs": [],
      "name": "owner",
      "outputs": [
        {
          "internalType": "address",
          "name": "",
          "type": "address"
        }
      ],
      "stateMutability": "view",
      "type": "function"
    },
    {
      "inputs": [
        {
          "internalType": "uint256",
          "name": "",
          "type": "uint256"
        }
      ],
      "name": "proposals",
      "outputs": [
        {
          "internalType": "string",
          "name": "description",
          "type": "string"
        },
        {
          "internalType": "uint256",
          "name": "voteCount",
          "type": "uint256"
        }
      ],
      "stateMutability": "view",
      "type": "function"
    },
    {
      "inputs": [
        {
          "internalType": "string",
          "name": "_description",
          "type": "string"
        }
      ],
      "name": "registerProposal",
      "outputs": [],
      "stateMutability": "nonpayable",
      "type": "function"
    },
    {
      "inputs": [
        {
          "internalType": "address",
          "name": "_voter",
          "type": "address"
        }
      ],
      "name": "registerVoter",
      "outputs": [],
      "stateMutability": "nonpayable",
      "type": "function"
    },
    {
      "inputs": [
        {
          "internalType": "address[]",
          "name": "_voters",
          "type": "address[]"
        }
      ],
      "name": "registerVoters",
      "outputs": [],
      "stateMutability": "nonpayable",
      "type": "function"
    },
    {
      "inputs": [],
      "name": "renounceOwnership",
      "outputs": [],
      "stateMutability": "nonpayable",
      "type": "function"
    },
    {
      "inputs": [],
      "name": "startProposalsRegistration",
      "outputs": [],
      "stateMutability": "nonpayable",
      "type": "function"
    },
    {
      "inputs": [],
      "name": "startVotingSession",
      "outputs": [],
      "stateMutability": "nonpayable",
      "type": "function"
    },
    {
      "inputs": [],
      "name": "tallyVotes",
      "outputs": [],
      "stateMutability": "nonpayable",
      "type": "function"
    },
    {
      "inputs": [
        {
          "internalType": "address",
          "name": "newOwner",
          "type": "address"
        }
      ],
      "name": "transferOwnership",
      "outputs": [],
      "stateMutability": "nonpayable",
      "type": "function"
    },
    {
      "inputs": [
        {
          "internalType": "address",
          "name": "_voter",
          "type": "address"
        }
      ],
      "name": "unregisterVoter",
      "outputs": [],
      "stateMutability": "nonpayable",
      "type": "function"
    },
    {
      "inputs": [
        {
          "internalType": "uint256",
          "name": "_proposalId",
          "type": "uint256"
        }
      ],
      "name": "vote",
      "outputs": [],
      "stateMutability": "nonpayable",
      "type": "function"
    },
    {
      "inputs": [
        {
          "internalType": "address",
          "name": "",
          "type": "address"
        }
      ],
      "name": "voters",
      "outputs": [
        {
          "internalType": "bool",
          "name": "isRegistered",
          "type": "bool"
        },
        {
          "internalType": "bool",
          "name": "hasVoted",
          "type": "bool"
        },
        {
          "internalType": "uint256",
          "name": "votedProposalId",
          "type": "uint256"
        }
      ],
      "stateMutability": "view",
      "type": "function"
    },
    {
      "inputs": [],
      "name": "winningProposalId",
      "outputs": [
        {
          "internalType": "uint256",
          "name": "",
          "type": "uint256"
        }
      ],
      "stateMutability": "view",
      "type": "function"
    },
    {
      "inputs": [],
      "name": "workflowStatus",
      "outputs": [
        {
          "internalType": "enum Voting.WorkflowStatus",
          "name": "",
          "type": "uint8"
        }
      ],
      "stateMutability": "view",
      "type": "function"
    }
  ],
  "bytecode": "0x608060405234801561001057600080fd5b50338061003757604051631e4fbdf760e01b81526000600482015260240160405180910390fd5b61004081610053565b506000805460ff60a01b191690556100a3565b600080546001600160a01b038381166001600160a01b0319831681178455604051919092169283917f8be0079c531659141344cd1fd0a4f28419497f9722a3daafe3b4186f6b6457e09190a35050565b6119ce806100b26000396000f3fe608060405234801561001057600080fd5b50600436106101375760003560e01c806398e527d3116100b8578063c7f758a81161007c578063c7f758a814610293578063d4f50f98146102a6578063d55ec9c1146102e3578063e09b8c79146102f6578063ee74c678146102fe578063f2fde38b1461030657600080fd5b806398e527d3146101fe578063a1edffa214610210578063a3ec138d14610231578063a7bfab1614610282578063c64963c51461028a57600080fd5b80636c297445116100ff5780636c297445146101a9578063715018a6146101b15780637ed17751146101b95780638da5cb5b146101cc5780638e7ea5b2146101e757600080fd5b80630121b93f1461013c578063013cf08b146101515780632f95355b1461017b578063378a21781461018e57806338db6dd314610196575b600080fd5b61014f61014a36600461151e565b610319565b005b61016461015f36600461151e565b610524565b60405161017292919061157d565b60405180910390f35b61014f61018936600461159f565b6105e0565b61014f6107bb565b61014f6101a4366004611611565b610ace565b61014f610bcf565b61014f610ce0565b61014f6101c7366004611611565b610cf4565b6000546040516001600160a01b039091168152602001610172565b6101ef610df1565b60405161017293929190611641565b6001545b604051908152602001610172565b60005461022490600160a01b900460ff1681565b60405161017291906116a2565b61026561023f366004611611565b6002602052600090815260409020805460019091015460ff808316926101009004169083565b604080519315158452911515602084015290820152606001610172565b61014f610f4a565b61020260035481565b6101646102a136600461151e565b610ff4565b6102656102b4366004611611565b6001600160a01b03166000908152600260205260409020805460019091015460ff808316936101009093041691565b61014f6102f13660046116b6565b61111e565b61014f611289565b61014f6113a7565b61014f610314366004611611565b611463565b3360009081526002602052604090205460ff1661037d5760405162461bcd60e51b815260206004820152601d60248201527f596f75277265206e6f742061207265676973746572656420766f74657200000060448201526064015b60405180910390fd5b6003600054600160a01b900460ff16600581111561039d5761039d61166a565b146103ea5760405162461bcd60e51b815260206004820152601c60248201527f566f74696e672073657373696f6e206973206e6f7420616374697665000000006044820152606401610374565b33600090815260026020526040902054610100900460ff16156104485760405162461bcd60e51b8152602060048201526016602482015275165bdd481a185d9948185b1c9958591e481d9bdd195960521b6044820152606401610374565b600154811061048e5760405162461bcd60e51b8152602060048201526012602482015271141c9bdc1bdcd85b081b9bdd08199bdd5b9960721b6044820152606401610374565b336000908152600260205260409020805461ff00191661010017815560019081018290558054829081106104c4576104c4611719565b6000918252602082206001600290920201018054916104e283611745565b909155505060408051338152602081018390527f4d99b957a2bc29a30ebd96a7be8e68fe50a3c701db28a91436490b7d53870ca491015b60405180910390a150565b6001818154811061053457600080fd5b90600052602060002090600202016000915090508060000180546105579061175e565b80601f01602080910402602001604051908101604052809291908181526020018280546105839061175e565b80156105d05780601f106105a5576101008083540402835291602001916105d0565b820191906000526020600020905b8154815290600101906020018083116105b357829003601f168201915b5050505050908060010154905082565b3360009081526002602052604090205460ff1661063f5760405162461bcd60e51b815260206004820152601d60248201527f596f75277265206e6f742061207265676973746572656420766f7465720000006044820152606401610374565b6001600054600160a01b900460ff16600581111561065f5761065f61166a565b146106b75760405162461bcd60e51b815260206004820152602260248201527f50726f706f73616c7320726567697374726174696f6e206973206e6f74206f7060448201526132b760f11b6064820152608401610374565b806107045760405162461bcd60e51b815260206004820152601b60248201527f4465736372697074696f6e2063616e6e6f7420626520656d70747900000000006044820152606401610374565b6040805160606020601f850181900402820181018352918101838152600192829190869086908190850183828082843760009201829052509385525050506020918201819052835460018101855593815220815191926002020190819061076b90826117fc565b506020919091015160019182015580547f92e393e9b54e2f801d3ea4beb0c5e71a21cc34a5d34b77d0fb8a3aa1650dc18f916107a6916118bc565b60405190815260200160405180910390a15050565b6107c36114a1565b6004600054600160a01b900460ff1660058111156107e3576107e361166a565b146108305760405162461bcd60e51b815260206004820152601b60248201527f566f74696e672073657373696f6e206973206e6f7420656e64656400000000006044820152606401610374565b600154600090819067ffffffffffffffff81111561085057610850611798565b604051908082528060200260200182016040528015610879578160200160208202803683370190505b5090506000805b6001548110156109a757836001828154811061089e5761089e611719565b906000526020600020906002020160010154111561090c57600181815481106108c9576108c9611719565b90600052602060002090600202016001015493508060038190555060009150808383815181106108fb576108fb611719565b602002602001018181525050610995565b836001828154811061092057610920611719565b906000526020600020906002020160010154148015610963575060006001828154811061094f5761094f611719565b906000526020600020906002020160010154115b15610995578161097281611745565b9250508083838151811061098857610988611719565b6020026020010181815250505b8061099f81611745565b915050610880565b508015610a8c5760006109bb8260016118cf565b67ffffffffffffffff8111156109d3576109d3611798565b6040519080825280602002602001820160405280156109fc578160200160208202803683370190505b50905060005b828111610a5257838181518110610a1b57610a1b611719565b6020026020010151828281518110610a3557610a35611719565b602090810291909101015280610a4a81611745565b915050610a02565b507fb168a3e7a658e7de3f4d851efec50c9d74b0d8322a1baca6c8a8432cd02f1d5b81604051610a8291906118e2565b60405180910390a1505b6000805460ff60a01b1916600560a01b17905560405160008051602061197983398151915290610ac190600490600590611926565b60405180910390a1505050565b610ad66114a1565b60008054600160a01b900460ff166005811115610af557610af561166a565b14610b125760405162461bcd60e51b815260040161037490611941565b6001600160a01b03811660009081526002602052604090205460ff1615610b7b5760405162461bcd60e51b815260206004820152601b60248201527f566f74657220697320616c7265616479207265676973746572656400000000006044820152606401610374565b6001600160a01b038116600081815260026020908152604091829020805460ff1916600117905590519182527fb6be2187d059cc2a55fe29e0e503b566e1e0f8c8780096e185429350acffd3dd9101610519565b610bd76114a1565b6001600054600160a01b900460ff166005811115610bf757610bf761166a565b14610c505760405162461bcd60e51b8152602060048201526024808201527f50726f706f73616c7320726567697374726174696f6e206973206e6f742061636044820152637469766560e01b6064820152608401610374565b6001805411610ca15760405162461bcd60e51b815260206004820152601760248201527f4e6f2070726f706f73616c7320726567697374657265640000000000000000006044820152606401610374565b6000805460ff60a01b1916600160a11b17905560405160008051602061197983398151915290610cd690600190600290611926565b60405180910390a1565b610ce86114a1565b610cf260006114ce565b565b610cfc6114a1565b60008054600160a01b900460ff166005811115610d1b57610d1b61166a565b14610d385760405162461bcd60e51b815260040161037490611941565b6001600160a01b03811660009081526002602052604090205460ff16610da05760405162461bcd60e51b815260206004820152601760248201527f566f746572206973206e6f7420726567697374657265640000000000000000006044820152606401610374565b6001600160a01b038116600081815260026020908152604091829020805460ff1916905590519182527f25fc2460244a2fff1d6879302ea1d6f3e684e599d76c012a22e42d5bb61cc5d79101610519565b60006060816005600054600160a01b900460ff166005811115610e1657610e1661166a565b14610e635760405162461bcd60e51b815260206004820152601960248201527f566f74657320617265206e6f742074616c6c69656420796574000000000000006044820152606401610374565b600354600160035481548110610e7b57610e7b611719565b9060005260206000209060020201600001600160035481548110610ea157610ea1611719565b906000526020600020906002020160010154818054610ebf9061175e565b80601f0160208091040260200160405190810160405280929190818152602001828054610eeb9061175e565b8015610f385780601f10610f0d57610100808354040283529160200191610f38565b820191906000526020600020905b815481529060010190602001808311610f1b57829003601f168201915b50505050509150925092509250909192565b610f526114a1565b6003600054600160a01b900460ff166005811115610f7257610f7261166a565b14610fbf5760405162461bcd60e51b815260206004820152601c60248201527f566f74696e672073657373696f6e206973206e6f7420616374697665000000006044820152606401610374565b6000805460ff60a01b1916600160a21b17905560405160008051602061197983398151915290610cd690600390600490611926565b60015460609060009083106110405760405162461bcd60e51b8152602060048201526012602482015271141c9bdc1bdcd85b081b9bdd08199bdd5b9960721b6044820152606401610374565b6001838154811061105357611053611719565b90600052602060002090600202016000016001848154811061107757611077611719565b9060005260206000209060020201600101548180546110959061175e565b80601f01602080910402602001604051908101604052809291908181526020018280546110c19061175e565b801561110e5780601f106110e35761010080835404028352916020019161110e565b820191906000526020600020905b8154815290600101906020018083116110f157829003601f168201915b5050505050915091509150915091565b6111266114a1565b60008054600160a01b900460ff1660058111156111455761114561166a565b146111625760405162461bcd60e51b815260040161037490611941565b60005b81811015611284576002600084848481811061118357611183611719565b90506020020160208101906111989190611611565b6001600160a01b0316815260208101919091526040016000205460ff16611272576001600260008585858181106111d1576111d1611719565b90506020020160208101906111e69190611611565b6001600160a01b031681526020810191909152604001600020805460ff19169115159190911790557fb6be2187d059cc2a55fe29e0e503b566e1e0f8c8780096e185429350acffd3dd83838381811061124157611241611719565b90506020020160208101906112569190611611565b6040516001600160a01b03909116815260200160405180910390a15b8061127c81611745565b915050611165565b505050565b6112916114a1565b60008054600160a01b900460ff1660058111156112b0576112b061166a565b1461130c5760405162461bcd60e51b815260206004820152602660248201527f5265676973746572696e6720766f74657273207068617365206973206e6f742060448201526561637469766560d01b6064820152608401610374565b6000805460ff60a01b1916600160a01b178155604080516060810182529081018281528152602081018290526001805480820182559252805190916002027fb10e2d527612073b26eecdfd717e6a320cf44b4afac2b0732d9fcbe2b7fa0cf60190819061137990826117fc565b5060208201518160010155505060008051602061197983398151915260006001604051610cd6929190611926565b6113af6114a1565b6002600054600160a01b900460ff1660058111156113cf576113cf61166a565b1461142e5760405162461bcd60e51b815260206004820152602960248201527f50726f706f73616c7320726567697374726174696f6e207068617365206973206044820152681b9bdd08195b99195960ba1b6064820152608401610374565b6000805460ff60a01b1916600360a01b17905560405160008051602061197983398151915290610cd690600290600390611926565b61146b6114a1565b6001600160a01b03811661149557604051631e4fbdf760e01b815260006004820152602401610374565b61149e816114ce565b50565b6000546001600160a01b03163314610cf25760405163118cdaa760e01b8152336004820152602401610374565b600080546001600160a01b038381166001600160a01b0319831681178455604051919092169283917f8be0079c531659141344cd1fd0a4f28419497f9722a3daafe3b4186f6b6457e09190a35050565b60006020828403121561153057600080fd5b5035919050565b6000815180845260005b8181101561155d57602081850181015186830182015201611541565b506000602082860101526020601f19601f83011685010191505092915050565b6040815260006115906040830185611537565b90508260208301529392505050565b600080602083850312156115b257600080fd5b823567ffffffffffffffff808211156115ca57600080fd5b818501915085601f8301126115de57600080fd5b8135818111156115ed57600080fd5b8660208285010111156115ff57600080fd5b60209290920196919550909350505050565b60006020828403121561162357600080fd5b81356001600160a01b038116811461163a57600080fd5b9392505050565b83815260606020820152600061165a6060830185611537565b9050826040830152949350505050565b634e487b7160e01b600052602160045260246000fd5b6006811061169e57634e487b7160e01b600052602160045260246000fd5b9052565b602081016116b08284611680565b92915050565b600080602083850312156116c957600080fd5b823567ffffffffffffffff808211156116e157600080fd5b818501915085601f8301126116f557600080fd5b81358181111561170457600080fd5b8660208260051b85010111156115ff57600080fd5b634e487b7160e01b600052603260045260246000fd5b634e487b7160e01b600052601160045260246000fd5b6000600182016117575761175761172f565b5060010190565b600181811c9082168061177257607f821691505b60208210810361179257634e487b7160e01b600052602260045260246000fd5b50919050565b634e487b7160e01b600052604160045260246000fd5b601f82111561128457600081815260208120601f850160051c810160208610156117d55750805b601f850160051c820191505b818110156117f4578281556001016117e1565b505050505050565b815167ffffffffffffffff81111561181657611816611798565b61182a81611824845461175e565b846117ae565b602080601f83116001811461185f57600084156118475750858301515b600019600386901b1c1916600185901b1785556117f4565b600085815260208120601f198616915b8281101561188e5788860151825594840194600190910190840161186f565b50858210156118ac5787850151600019600388901b60f8161c191681555b5050505050600190811b01905550565b818103818111156116b0576116b061172f565b808201808211156116b0576116b061172f565b6020808252825182820181905260009190848201906040850190845b8181101561191a578351835292840192918401916001016118fe565b50909695505050505050565b604081016119348285611680565b61163a6020830184611680565b6020808252601f908201527f566f7465727320726567697374726174696f6e206973206e6f74206f70656e0060408201526060019056fe0a97a4ee45751e2abf3e4fc8946939630b11b371ea8ae39ccdc3056e98f5cc3fa2646970667358221220aa92b9404a2fb8bdbe1566ce937cb4e8cc9bd27874f0148e4bbc016fbb6358ed64736f6c63430008140033",
  "linkReferences": {},
  "deployedLinkReferences": {}
}