{
  "_format": "hh-sol-artifact-1",
  "contractName": "Voting",
  "sourceName": "contracts/Voting.sol",
  "abi": [
    {
      "inputs": [],
      "stateMutability": "nonpayable",
      "type": "constructor"
    },
    {
      "inputs": [
        {
          "internalType": "address",
          "name": "owner",
          "type": "address"
        }
      ],
      "name": "OwnableInvalidOwner",
      "type": "error"
    },
    {
      "inputs": [
        {
          "internalType": "address",
          "name": "account",
          "type": "address"
        }
      ],
      "name": "OwnableUnauthorizedAccount",
      "type": "error"
    },
    {
      "anonymous": false,
      "inputs": [
        {
          "indexed": true,
          "internalType": "address",
          "name": "previousOwner",
          "type": "address"
        },
        {
          "indexed": true,
          "internalType": "address",
          "name": "newOwner",
          "type": "address"
        }
      ],
      "name": "OwnershipTransferred",
      "type": "event"
    },
    {
      "anonymous": false,
      "inputs": [
        {
          "indexed": false,
          "internalType": "uint256",
          "name": "proposalId",
          "type": "uint256"
        }
      ],
      "name": "ProposalRegistered",
      "type": "event"
    },
    {
      "anonymous": false,
      "inputs": [
        {
          "indexed": false,
          "internalType": "uint256[]",
          "name": "proposalIds",
          "type": "uint256[]"
        }
      ],
      "name": "ProposalTie",
      "type": "event"
    },
    {
      "anonymous": false,
      "inputs": [
        {
          "indexed": false,
          "internalType": "address",
          "name": "voter",
          "type": "address"
        },
        {
          "indexed": false,
          "internalType": "uint256",
          "name": "proposalId",
          "type": "uint256"
        }
      ],
      "name": "Voted",
      "type": "event"
    },
    {
      "anonymous": false,
      "inputs": [
        {
          "indexed": false,
          "internalType": "address",
          "name": "voterAddress",
          "type": "address"
        }
      ],
      "name": "VoterRegistered",
      "type": "event"
    },
    {
      "anonymous": false,
      "inputs": [
        {
          "indexed": false,
          "internalType": "address",
          "name": "voterAddress",
          "type": "address"
        }
      ],
      "name": "VoterUnregistered",
      "type": "event"
    },
    {
      "anonymous": false,
      "inputs": [
        {
          "indexed": false,
          "internalType": "enum Voting.WorkflowStatus",
          "name": "previousStatus",
          "type": "uint8"
        },
        {
          "indexed": false,
          "internalType": "enum Voting.WorkflowStatus",
          "name": "newStatus",
          "type": "uint8"
        }
      ],
      "name": "WorkflowStatusChange",
      "type": "event"
    },
    {
      "inputs": [],
      "name": "endProposalsRegistration",
      "outputs": [],
      "stateMutability": "nonpayable",
      "type": "function"
    },
    {
      "inputs": [],
      "name": "endVotingSession",
      "outputs": [],
      "stateMutability": "nonpayable",
      "type": "function"
    },
    {
      "inputs": [
        {
          "internalType": "uint256",
          "name": "_proposalId",
          "type": "uint256"
        }
      ],
      "name": "getProposal",
      "outputs": [
        {
          "internalType": "string",
          "name": "description",
          "type": "string"
        },
        {
          "internalType": "uint256",
          "name": "voteCount",
          "type": "uint256"
        }
      ],
      "stateMutability": "view",
      "type": "function"
    },
    {
      "inputs": [],
      "name": "getProposalsCount",
      "outputs": [
        {
          "internalType": "uint256",
          "name": "",
          "type": "uint256"
        }
      ],
      "stateMutability": "view",
      "type": "function"
    },
    {
      "inputs": [
        {
          "internalType": "address",
          "name": "_voter",
          "type": "address"
        }
      ],
      "name": "getVoter",
      "outputs": [
        {
          "internalType": "bool",
          "name": "isRegistered",
          "type": "bool"
        },
        {
          "internalType": "bool",
          "name": "hasVoted",
          "type": "bool"
        },
        {
          "internalType": "uint256",
          "name": "votedProposalId",
          "type": "uint256"
        }
      ],
      "stateMutability": "view",
      "type": "function"
    },
    {
      "inputs": [],
      "name": "getWinner",
      "outputs": [
        {
          "internalType": "uint256",
          "name": "winningProposal_",
          "type": "uint256"
        },
        {
          "internalType": "string",
          "name": "description",
          "type": "string"
        },
        {
          "internalType": "uint256",
          "name": "voteCount",
          "type": "uint256"
        }
      ],
      "stateMutability": "view",
      "type": "function"
    },
    {
      "inputs": [],
      "name": "owner",
      "outputs": [
        {
          "internalType": "address",
          "name": "",
          "type": "address"
        }
      ],
      "stateMutability": "view",
      "type": "function"
    },
    {
      "inputs": [
        {
          "internalType": "uint256",
          "name": "",
          "type": "uint256"
        }
      ],
      "name": "proposals",
      "outputs": [
        {
          "internalType": "string",
          "name": "description",
          "type": "string"
        },
        {
          "internalType": "uint256",
          "name": "voteCount",
          "type": "uint256"
        }
      ],
      "stateMutability": "view",
      "type": "function"
    },
    {
      "inputs": [
        {
          "internalType": "string",
          "name": "_description",
          "type": "string"
        }
      ],
      "name": "registerProposal",
      "outputs": [],
      "stateMutability": "nonpayable",
      "type": "function"
    },
    {
      "inputs": [
        {
          "internalType": "address",
          "name": "_voter",
          "type": "address"
        }
      ],
      "name": "registerVoter",
      "outputs": [],
      "stateMutability": "nonpayable",
      "type": "function"
    },
    {
      "inputs": [
        {
          "internalType": "address[]",
          "name": "_voters",
          "type": "address[]"
        }
      ],
      "name": "registerVoters",
      "outputs": [],
      "stateMutability": "nonpayable",
      "type": "function"
    },
    {
      "inputs": [],
      "name": "renounceOwnership",
      "outputs": [],
      "stateMutability": "nonpayable",
      "type": "function"
    },
    {
      "inputs": [],
      "name": "resetVoting",
      "outputs": [],
      "stateMutability": "nonpayable",
      "type": "function"
    },
    {
      "inputs": [],
      "name": "startProposalsRegistration",
      "outputs": [],
      "stateMutability": "nonpayable",
      "type": "function"
    },
    {
      "inputs": [],
      "name": "startVotingSession",
      "outputs": [],
      "stateMutability": "nonpayable",
      "type": "function"
    },
    {
      "inputs": [],
      "name": "tallyVotes",
      "outputs": [],
      "stateMutability": "nonpayable",
      "type": "function"
    },
    {
      "inputs": [
        {
          "internalType": "address",
          "name": "newOwner",
          "type": "address"
        }
      ],
      "name": "transferOwnership",
      "outputs": [],
      "stateMutability": "nonpayable",
      "type": "function"
    },
    {
      "inputs": [
        {
          "internalType": "address",
          "name": "_voter",
          "type": "address"
        }
      ],
      "name": "unregisterVoter",
      "outputs": [],
      "stateMutability": "nonpayable",
      "type": "function"
    },
    {
      "inputs": [
        {
          "internalType": "uint256",
          "name": "_proposalId",
          "type": "uint256"
        }
      ],
      "name": "vote",
      "outputs": [],
      "stateMutability": "nonpayable",
      "type": "function"
    },
    {
      "inputs": [
        {
          "internalType": "uint256",
          "name": "",
          "type": "uint256"
        }
      ],
      "name": "voterAddresses",
      "outputs": [
        {
          "internalType": "address",
          "name": "",
          "type": "address"
        }
      ],
      "stateMutability": "view",
      "type": "function"
    },
    {
      "inputs": [
        {
          "internalType": "address",
          "name": "",
          "type": "address"
        }
      ],
      "name": "voters",
      "outputs": [
        {
          "internalType": "bool",
          "name": "isRegistered",
          "type": "bool"
        },
        {
          "internalType": "bool",
          "name": "hasVoted",
          "type": "bool"
        },
        {
          "internalType": "uint256",
          "name": "votedProposalId",
          "type": "uint256"
        }
      ],
      "stateMutability": "view",
      "type": "function"
    },
    {
      "inputs": [],
      "name": "winningProposalId",
      "outputs": [
        {
          "internalType": "uint256",
          "name": "",
          "type": "uint256"
        }
      ],
      "stateMutability": "view",
      "type": "function"
    },
    {
      "inputs": [],
      "name": "workflowStatus",
      "outputs": [
        {
          "internalType": "enum Voting.WorkflowStatus",
          "name": "",
          "type": "uint8"
        }
      ],
      "stateMutability": "view",
      "type": "function"
    }
  ],
  "bytecode": "0x608060405234801561001057600080fd5b50338061003757604051631e4fbdf760e01b81526000600482015260240160405180910390fd5b61004081610053565b506000805460ff60a01b191690556100a3565b600080546001600160a01b038381166001600160a01b0319831681178455604051919092169283917f8be0079c531659141344cd1fd0a4f28419497f9722a3daafe3b4186f6b6457e09190a35050565b611e42806100b26000396000f3fe608060405234801561001057600080fd5b506004361061014d5760003560e01c806398e527d3116100c3578063d4f50f981161007c578063d4f50f98146102ce578063d55ec9c11461030b578063dd0e23731461031e578063e09b8c7914610331578063ee74c67814610339578063f2fde38b1461034157600080fd5b806398e527d314610226578063a1edffa214610238578063a3ec138d14610259578063a7bfab16146102aa578063c64963c5146102b2578063c7f758a8146102bb57600080fd5b80636c297445116101155780636c297445146101bf578063715018a6146101c75780637ed17751146101cf578063856e698c146101e25780638da5cb5b146101ea5780638e7ea5b21461020f57600080fd5b80630121b93f14610152578063013cf08b146101675780632f95355b14610191578063378a2178146101a457806338db6dd3146101ac575b600080fd5b61016561016036600461197c565b610354565b005b61017a61017536600461197c565b61055f565b6040516101889291906119db565b60405180910390f35b61016561019f3660046119fd565b61061b565b6101656107f6565b6101656101ba366004611a6f565b610b09565b610165610c4c565b610165610d5d565b6101656101dd366004611a6f565b610d71565b610165610f7d565b6000546001600160a01b03165b6040516001600160a01b039091168152602001610188565b61021761113b565b60405161018893929190611a9f565b6001545b604051908152602001610188565b60005461024c90600160a01b900460ff1681565b6040516101889190611b00565b61028d610267366004611a6f565b6002602052600090815260409020805460019091015460ff808316926101009004169083565b604080519315158452911515602084015290820152606001610188565b610165611294565b61022a60045481565b61017a6102c936600461197c565b61133e565b61028d6102dc366004611a6f565b6001600160a01b03166000908152600260205260409020805460019091015460ff808316936101009093041691565b610165610319366004611b14565b611468565b6101f761032c36600461197c565b61162e565b610165611658565b610165611776565b61016561034f366004611a6f565b611832565b3360009081526002602052604090205460ff166103b85760405162461bcd60e51b815260206004820152601d60248201527f596f75277265206e6f742061207265676973746572656420766f74657200000060448201526064015b60405180910390fd5b6003600054600160a01b900460ff1660058111156103d8576103d8611ac8565b146104255760405162461bcd60e51b815260206004820152601c60248201527f566f74696e672073657373696f6e206973206e6f74206163746976650000000060448201526064016103af565b33600090815260026020526040902054610100900460ff16156104835760405162461bcd60e51b8152602060048201526016602482015275165bdd481a185d9948185b1c9958591e481d9bdd195960521b60448201526064016103af565b60015481106104c95760405162461bcd60e51b8152602060048201526012602482015271141c9bdc1bdcd85b081b9bdd08199bdd5b9960721b60448201526064016103af565b336000908152600260205260409020805461ff00191661010017815560019081018290558054829081106104ff576104ff611b77565b60009182526020822060016002909202010180549161051d83611ba3565b909155505060408051338152602081018390527f4d99b957a2bc29a30ebd96a7be8e68fe50a3c701db28a91436490b7d53870ca491015b60405180910390a150565b6001818154811061056f57600080fd5b906000526020600020906002020160009150905080600001805461059290611bbc565b80601f01602080910402602001604051908101604052809291908181526020018280546105be90611bbc565b801561060b5780601f106105e05761010080835404028352916020019161060b565b820191906000526020600020905b8154815290600101906020018083116105ee57829003601f168201915b5050505050908060010154905082565b3360009081526002602052604090205460ff1661067a5760405162461bcd60e51b815260206004820152601d60248201527f596f75277265206e6f742061207265676973746572656420766f74657200000060448201526064016103af565b6001600054600160a01b900460ff16600581111561069a5761069a611ac8565b146106f25760405162461bcd60e51b815260206004820152602260248201527f50726f706f73616c7320726567697374726174696f6e206973206e6f74206f7060448201526132b760f11b60648201526084016103af565b8061073f5760405162461bcd60e51b815260206004820152601b60248201527f4465736372697074696f6e2063616e6e6f7420626520656d707479000000000060448201526064016103af565b6040805160606020601f85018190040282018101835291810183815260019282919086908690819085018382808284376000920182905250938552505050602091820181905283546001810185559381522081519192600202019081906107a69082611c5a565b506020919091015160019182015580547f92e393e9b54e2f801d3ea4beb0c5e71a21cc34a5d34b77d0fb8a3aa1650dc18f916107e191611d1a565b60405190815260200160405180910390a15050565b6107fe611870565b6004600054600160a01b900460ff16600581111561081e5761081e611ac8565b1461086b5760405162461bcd60e51b815260206004820152601b60248201527f566f74696e672073657373696f6e206973206e6f7420656e646564000000000060448201526064016103af565b600154600090819067ffffffffffffffff81111561088b5761088b611bf6565b6040519080825280602002602001820160405280156108b4578160200160208202803683370190505b5090506000805b6001548110156109e25783600182815481106108d9576108d9611b77565b9060005260206000209060020201600101541115610947576001818154811061090457610904611b77565b906000526020600020906002020160010154935080600481905550600091508083838151811061093657610936611b77565b6020026020010181815250506109d0565b836001828154811061095b5761095b611b77565b90600052602060002090600202016001015414801561099e575060006001828154811061098a5761098a611b77565b906000526020600020906002020160010154115b156109d057816109ad81611ba3565b925050808383815181106109c3576109c3611b77565b6020026020010181815250505b806109da81611ba3565b9150506108bb565b508015610ac75760006109f6826001611d2d565b67ffffffffffffffff811115610a0e57610a0e611bf6565b604051908082528060200260200182016040528015610a37578160200160208202803683370190505b50905060005b828111610a8d57838181518110610a5657610a56611b77565b6020026020010151828281518110610a7057610a70611b77565b602090810291909101015280610a8581611ba3565b915050610a3d565b507fb168a3e7a658e7de3f4d851efec50c9d74b0d8322a1baca6c8a8432cd02f1d5b81604051610abd9190611d40565b60405180910390a1505b6000805460ff60a01b1916600560a01b179055604051600080516020611ded83398151915290610afc90600490600590611d84565b60405180910390a1505050565b610b11611870565b60008054600160a01b900460ff166005811115610b3057610b30611ac8565b14610b4d5760405162461bcd60e51b81526004016103af90611d9f565b6001600160a01b03811660009081526002602052604090205460ff1615610bb65760405162461bcd60e51b815260206004820152601b60248201527f566f74657220697320616c72656164792072656769737465726564000000000060448201526064016103af565b6001600160a01b0381166000818152600260209081526040808320805460ff191660019081179091556003805491820181559093527fc2575a0e9e593c00f959f8c92f12db2869c3395a3b0502d05e2516446f71f85b90920180546001600160a01b0319168417905590519182527fb6be2187d059cc2a55fe29e0e503b566e1e0f8c8780096e185429350acffd3dd9101610554565b610c54611870565b6001600054600160a01b900460ff166005811115610c7457610c74611ac8565b14610ccd5760405162461bcd60e51b8152602060048201526024808201527f50726f706f73616c7320726567697374726174696f6e206973206e6f742061636044820152637469766560e01b60648201526084016103af565b6001805411610d1e5760405162461bcd60e51b815260206004820152601760248201527f4e6f2070726f706f73616c73207265676973746572656400000000000000000060448201526064016103af565b6000805460ff60a01b1916600160a11b179055604051600080516020611ded83398151915290610d5390600190600290611d84565b60405180910390a1565b610d65611870565b610d6f600061189d565b565b610d79611870565b60008054600160a01b900460ff166005811115610d9857610d98611ac8565b14610db55760405162461bcd60e51b81526004016103af90611d9f565b6001600160a01b03811660009081526002602052604090205460ff16610e1d5760405162461bcd60e51b815260206004820152601760248201527f566f746572206973206e6f74207265676973746572656400000000000000000060448201526064016103af565b6001600160a01b0381166000908152600260205260408120805460ff191690555b600354811015610f4357816001600160a01b031660038281548110610e6557610e65611b77565b6000918252602090912001546001600160a01b031603610f315760038054610e8f90600190611d1a565b81548110610e9f57610e9f611b77565b600091825260209091200154600380546001600160a01b039092169183908110610ecb57610ecb611b77565b9060005260206000200160006101000a8154816001600160a01b0302191690836001600160a01b031602179055506003805480610f0a57610f0a611dd6565b600082815260209020810160001990810180546001600160a01b0319169055019055610f43565b80610f3b81611ba3565b915050610e3e565b506040516001600160a01b03821681527f25fc2460244a2fff1d6879302ea1d6f3e684e599d76c012a22e42d5bb61cc5d790602001610554565b610f85611870565b6005600054600160a01b900460ff166005811115610fa557610fa5611ac8565b146110025760405162461bcd60e51b815260206004820152602760248201527f43757272656e7420766f74696e672073657373696f6e206973206e6f7420636f6044820152661b5c1b195d195960ca1b60648201526084016103af565b6000805460ff60a01b1916815561101b906001906118ed565b600060048190555b60035481101561111957600260006003838154811061104457611044611b77565b60009182526020808320909101546001600160a01b0316835282019290925260400190205460ff1615611107576000600260006003848154811061108a5761108a611b77565b60009182526020808320909101546001600160a01b03168352820192909252604001812080549215156101000261ff001990931692909217909155600380546002918391859081106110de576110de611b77565b60009182526020808320909101546001600160a01b031683528201929092526040019020600101555b8061111181611ba3565b915050611023565b50600080516020611ded83398151915260056000604051610d53929190611d84565b60006060816005600054600160a01b900460ff16600581111561116057611160611ac8565b146111ad5760405162461bcd60e51b815260206004820152601960248201527f566f74657320617265206e6f742074616c6c696564207965740000000000000060448201526064016103af565b6004546001600454815481106111c5576111c5611b77565b90600052602060002090600202016000016001600454815481106111eb576111eb611b77565b90600052602060002090600202016001015481805461120990611bbc565b80601f016020809104026020016040519081016040528092919081815260200182805461123590611bbc565b80156112825780601f1061125757610100808354040283529160200191611282565b820191906000526020600020905b81548152906001019060200180831161126557829003601f168201915b50505050509150925092509250909192565b61129c611870565b6003600054600160a01b900460ff1660058111156112bc576112bc611ac8565b146113095760405162461bcd60e51b815260206004820152601c60248201527f566f74696e672073657373696f6e206973206e6f74206163746976650000000060448201526064016103af565b6000805460ff60a01b1916600160a21b179055604051600080516020611ded83398151915290610d5390600390600490611d84565b600154606090600090831061138a5760405162461bcd60e51b8152602060048201526012602482015271141c9bdc1bdcd85b081b9bdd08199bdd5b9960721b60448201526064016103af565b6001838154811061139d5761139d611b77565b9060005260206000209060020201600001600184815481106113c1576113c1611b77565b9060005260206000209060020201600101548180546113df90611bbc565b80601f016020809104026020016040519081016040528092919081815260200182805461140b90611bbc565b80156114585780601f1061142d57610100808354040283529160200191611458565b820191906000526020600020905b81548152906001019060200180831161143b57829003601f168201915b5050505050915091509150915091565b611470611870565b60008054600160a01b900460ff16600581111561148f5761148f611ac8565b146114ac5760405162461bcd60e51b81526004016103af90611d9f565b60005b8181101561162957600260008484848181106114cd576114cd611b77565b90506020020160208101906114e29190611a6f565b6001600160a01b0316815260208101919091526040016000205460ff166116175760016002600085858581811061151b5761151b611b77565b90506020020160208101906115309190611a6f565b6001600160a01b031681526020810191909152604001600020805460ff1916911515919091179055600383838381811061156c5761156c611b77565b90506020020160208101906115819190611a6f565b81546001810183556000928352602090922090910180546001600160a01b0319166001600160a01b039092169190911790557fb6be2187d059cc2a55fe29e0e503b566e1e0f8c8780096e185429350acffd3dd8383838181106115e6576115e6611b77565b90506020020160208101906115fb9190611a6f565b6040516001600160a01b03909116815260200160405180910390a15b8061162181611ba3565b9150506114af565b505050565b6003818154811061163e57600080fd5b6000918252602090912001546001600160a01b0316905081565b611660611870565b60008054600160a01b900460ff16600581111561167f5761167f611ac8565b146116db5760405162461bcd60e51b815260206004820152602660248201527f5265676973746572696e6720766f74657273207068617365206973206e6f742060448201526561637469766560d01b60648201526084016103af565b6000805460ff60a01b1916600160a01b178155604080516060810182529081018281528152602081018290526001805480820182559252805190916002027fb10e2d527612073b26eecdfd717e6a320cf44b4afac2b0732d9fcbe2b7fa0cf6019081906117489082611c5a565b50602082015181600101555050600080516020611ded83398151915260006001604051610d53929190611d84565b61177e611870565b6002600054600160a01b900460ff16600581111561179e5761179e611ac8565b146117fd5760405162461bcd60e51b815260206004820152602960248201527f50726f706f73616c7320726567697374726174696f6e207068617365206973206044820152681b9bdd08195b99195960ba1b60648201526084016103af565b6000805460ff60a01b1916600360a01b179055604051600080516020611ded83398151915290610d5390600290600390611d84565b61183a611870565b6001600160a01b03811661186457604051631e4fbdf760e01b8152600060048201526024016103af565b61186d8161189d565b50565b6000546001600160a01b03163314610d6f5760405163118cdaa760e01b81523360048201526024016103af565b600080546001600160a01b038381166001600160a01b0319831681178455604051919092169283917f8be0079c531659141344cd1fd0a4f28419497f9722a3daafe3b4186f6b6457e09190a35050565b508054600082556002029060005260206000209081019061186d91905b8082111561192e57600061191e8282611932565b506000600182015560020161190a565b5090565b50805461193e90611bbc565b6000825580601f1061194e575050565b601f01602090049060005260206000209081019061186d91905b8082111561192e5760008155600101611968565b60006020828403121561198e57600080fd5b5035919050565b6000815180845260005b818110156119bb5760208185018101518683018201520161199f565b506000602082860101526020601f19601f83011685010191505092915050565b6040815260006119ee6040830185611995565b90508260208301529392505050565b60008060208385031215611a1057600080fd5b823567ffffffffffffffff80821115611a2857600080fd5b818501915085601f830112611a3c57600080fd5b813581811115611a4b57600080fd5b866020828501011115611a5d57600080fd5b60209290920196919550909350505050565b600060208284031215611a8157600080fd5b81356001600160a01b0381168114611a9857600080fd5b9392505050565b838152606060208201526000611ab86060830185611995565b9050826040830152949350505050565b634e487b7160e01b600052602160045260246000fd5b60068110611afc57634e487b7160e01b600052602160045260246000fd5b9052565b60208101611b0e8284611ade565b92915050565b60008060208385031215611b2757600080fd5b823567ffffffffffffffff80821115611b3f57600080fd5b818501915085601f830112611b5357600080fd5b813581811115611b6257600080fd5b8660208260051b8501011115611a5d57600080fd5b634e487b7160e01b600052603260045260246000fd5b634e487b7160e01b600052601160045260246000fd5b600060018201611bb557611bb5611b8d565b5060010190565b600181811c90821680611bd057607f821691505b602082108103611bf057634e487b7160e01b600052602260045260246000fd5b50919050565b634e487b7160e01b600052604160045260246000fd5b601f82111561162957600081815260208120601f850160051c81016020861015611c335750805b601f850160051c820191505b81811015611c5257828155600101611c3f565b505050505050565b815167ffffffffffffffff811115611c7457611c74611bf6565b611c8881611c828454611bbc565b84611c0c565b602080601f831160018114611cbd5760008415611ca55750858301515b600019600386901b1c1916600185901b178555611c52565b600085815260208120601f198616915b82811015611cec57888601518255948401946001909101908401611ccd565b5085821015611d0a5787850151600019600388901b60f8161c191681555b5050505050600190811b01905550565b81810381811115611b0e57611b0e611b8d565b80820180821115611b0e57611b0e611b8d565b6020808252825182820181905260009190848201906040850190845b81811015611d7857835183529284019291840191600101611d5c565b50909695505050505050565b60408101611d928285611ade565b611a986020830184611ade565b6020808252601f908201527f566f7465727320726567697374726174696f6e206973206e6f74206f70656e00604082015260600190565b634e487b7160e01b600052603160045260246000fdfe0a97a4ee45751e2abf3e4fc8946939630b11b371ea8ae39ccdc3056e98f5cc3fa2646970667358221220926188f0f80386b8ece2c1de36b718ae1ad550df73eb07a62ae800d1434e6b8764736f6c63430008140033",
  "linkReferences": {},
  "deployedLinkReferences": {}
}